:107C00001F92CDB7DEB7112414B714BE83E5FAD0A6
:107C100011FD06C013FDFDD081E4F4D0812FF9D110
:107C200085E08093810082E08093C00088E18093AA
:107C3000C10096E09093C20098E09093C4008093B6
:107C400060008EE080936000219A86E028E13EEF9C
:107C500091E0309385002093840096BBB09BFECFCB
:107C6000199AA8958150A9F7612C712C08E128E098
:107C7000F22EEE24E39435E0D32E41E1C42E13E03E
:107C8000A1D1813469F49ED18983AAD189818238B6
:107C9000F9F0813811F485E001C083E0B3D07BC0F6
:107CA000823411F484E103C0853419F485E0A4D151
:107CB00072C0853549F486D1B82E84D16B2C712CD5
:107CC000782A660C771C66C0863521F484E094D14E
:107CD00080E0E4CF843609F03FC074D173D1982E90
:107CE00071D1611480E7780618F4F30117BFE895A5
:107CF000A12CBB24B39466D1F50181935F019E1240
:107D0000FACF6114F0E77F0618F0F30117BFE8958A
:107D100067D107B600FCFDCFA301A0E0B1E08C91D4
:107D200012969D0121503109F901208190E0922B9A
:107D3000FA010C01E7BEE89511244E5F5F4FA038B1
:107D4000F1E0BF0761F7F301D7BEE89507B600FC85
:107D5000FDCFC7BEE8951FC0843769F433D132D157
:107D6000B82E30D13DD1F30185913F014BD0BA946B
:107D7000B110F9CF10C0853739F432D18EE142D03D
:107D800085E940D08FE08ACF813521F400936000EF
:107D9000F092600025D180E135D072CF8EBD0DB458
:107DA00007FEFDCF8EB50895289885E0F7DF80E0C7
:107DB000F5DF289A81700895CF93C82F662321F0AC
:107DC00060E086E0F9DF289AEFDF8111FDCF289887
:107DD0008C2FCF91E3CFCF92DF92EF92FF926B0186
:107DE0007C0160E083E0E8DF8E2DD8DF8D2DD6DFCB
:107DF0008C2DD4DF80E0D2DF289AFF90EF90DF90C7
:107E0000CF9008959091C00095FFFCCF8093C6005D
:107E100008959F92AF92BF92CF92DF92EF92FF921E
:107E20000F931F93CF93DF9386E4ECDF88E1809379
:107E300060001092600084B18D6284B9289A2A9AF9
:107E40008CB580658CBD28988FE9A8DF80E0A6DF1F
:107E5000289A81508E3F08F0A9C061E081E0ACDF34
:107E600080E09CDF289A60E070E0CB01B4DF8634CC
:107E700009F08FC061E070E080E090E0ACDF8C340E
:107E800009F087C062E070E080E090E0A4DF883510
:107E900009F07FC066E070E080E090E09CDF8A330C
:107EA00009F077C069E070E080E090E094DF8A3309
:107EB00009F06FC08CE4A6DF67E070E080E090E03E
:107EC0008ADFC82F68E070E080E090E084DFD0E0D7
:107ED000DC2FCC27C82BC0FD69C0199AC12CD12C2E
:107EE00000E010E0BB24B39483E0A82E95E0992E27
:107EF0000C171D0708F030C08AE284DFB801665F06
:107F00007F4F80E090E067DFE82EF12CB801655FDD
:107F10007F4F80E090E05FDFF82AF8010701B7BEED
:107F2000E89511240E5F1F4FC8018F779927892B81
:107F300019F0C017D107E1F6F601A7BEE89507B61C
:107F400000FCFDCFF60197BEE89507B600FCFDCF1B
:107F5000F0E8CF0ED11CCCCF199881E187BFE8950E
:107F600085E450DF2A9661E0C130D04810F482E504
:107F700001C088ED21DF80E011DF80E00FDF80E0CD
:107F80000DDF289A88E18093600088E0809360008C
:107F9000FFCF88E5DF91CF911F910F91FF90EF9078
:107FA000DF90CF90BF90AF909F902CCFDF91CF917B
:107FB0001F910F91FF90EF90DF90CF90BF90AF9007
:107FC0009F900895199A8091C00087FFFCCF8091FF
:107FD000C00084FD01C0A8958091C600199A08953B
:107FE000F1DF803239F088E18093600088E080938F
:107FF0006000FFCF84E106CFCF93C82FE3DFC150ED
:10800000E9F7CF91EDCFE0E6F0E098E1908380834F
:108010000895282EE0E6F0E088E180831082EE27C4
:04802000FF27099499
:027FFE0000057C
:0400000300007C007D
:00000001FF
